:1009760050415353204D41544348004F50454E205B
:10098600444F4F520053455420594F555220504121
:100996005353574F5244005052455353203D204B1A
:1009A60045590057524F4E47205041535300545219
:1009B6005920414741494E200030303000000000A8
:0D09C6000000000000000000000000000024
:1005E40078227C007D007BFF7A0979BF7E007F053D
:1005F4001200D6E4F527F528F529F52A782B7C0096
:10060400FD7BFF7A0979C4FE7F051200D678307C21
:10061400007D007BFF7A0979C97E007F051200D630
:1006240078357C007D007BFF7A0979CE7E007F05DA
:100634001200D6C2B7120D6E120D89120DA4120A41
:10064400C6120EAF120910120C55782B7C007D00D7
:100654001203A91208828B3A8A3B893CA801AC0296
:10066400AD037B007A00792B1202C08F2AE52A7031
:10067400287F01120DFE7BFF7A097976120CCB7F5D
:10068400C0120DFE7BFF7A097981120CCB120E4148
:100694007FD07E07120DBF80ABA83CAC3BAD3A7B4C
:1006A400007A0079221202C08F2AEF70397F01127A
:1006B4000DFE7F80120DFE7BFF7A09798B120CCB25
:1006C4007FC0120DFE7BFF7A09799D120CCB7F90BF
:1006D4007E01120DBF120E1040FB12072A8F27C293
:1006E400A7D2A70206487F01120DFE7F80120DFEDD
:1006F4007BFF7A0979A9120CCB7FC0120DFE7BFF18
:100704007A0979B4120CCB0529E52970020528244D
:1007140030FF120DECD2B7120E51C2B7AF29AE287A
:06072400120D120206484E
:100DBF00D3EF9400EE9400400F7DFADDFE7DF7DD5A
:080DCF00FEEF1F70EB1E80E82F
:010DD70022F9
:100C2500C2B7EF7010D2B5C2B67FE87E03120DBF12
:100C3500C2B5C2B622C2B5D2B67FE87E03120DBFD9
:100C4500C2B5C2B6D2B77FF47E01120DBFC2B722BC
:100A2E00454E544552204F4C442050415353005094
:100A3E00415353204D415443480053455420555281
:100A4E00204E455720504153530050415353204E92
:100A5E004F54204D41544348005452592041474170
:0D0A6E00494E0000000000000000000000E4
:1003C600E4F50A780D7C00FD7BFF7A0A7971FE7FE1
:1003D600051200D678157C007D007BFF7A0A7976B7
:1003E6007E007F051200D6120DD87F01120DFE7F0A
:1003F60080120DFE7BFF7A0A792E120CCBE4F50BE8
:10040600120ECB120E1040FB12072A8F09740D250F
:100416000BF8A609E50B24C0FF120DFEAF09120D5D
:10042600EC7F647E00120DBFE50B24C0FF120DFEAB
:100436007F2A120DEC050BC3E50B6480948340C044
:10044600740D250BF8E4F61209108F0AE50AB4318B
:1004560005120B068012E50AB43205120BBB8008A2
:10046600E50AB43309120BF08B128A138914780D3E
:100476007C007D00AB12AA13A9141202C08F0C7F58
:1004860001120DFE7F80120DFEE50C60030205B819
:100496007F01120DFE7F80120DFE7BFF7A0A793DE9
:1004A600120CCB7F907E01120DBF7F01120DFE7FD5
:1004B60080120DFE7BFF7A0A7948120CCB7FC012A0
:1004C6000DFE120ECB7F907E01120DBFE50A24CEE3
:1004D6006053147003020570240260030205E312E0
:1004E6000E1040FB12072A8F08120DECAB087D0395
:1004F6007FA0120CA6120ECB120E1040FB12072A7A
:100506008F08120DECAB087D047FA0120CA6120E0C
:10051600CB120E1040FB12072A8F08120DECAB0807
:100526007D050205B3120E1040FB12072A8F081232
:100536000DECAB087D087FA0120CA6120ECB120E96
:100546001040FB12072A8F08120DECAB087D097FBD
:10055600A0120CA6120ECB120E1040FB12072A8F09
:1005660008120DECAB087D0A8043120E1040FB12F8
:10057600072A8F08120DECAB087D0D7FA0120CA682
:10058600120ECB120E1040FB12072A8F08120DEC2A
:10059600AB087D0E7FA0120CA6120ECB120E1040D9
:1005A600FB12072A8F08120DECAB087D0F7FA00205
:1005B6000CA67F01120DFE7F80120DFE7BFF7A0ACC
:1005C6007958120CCB7FC0120DFE7BFF7A0A796731
:0D05D600120CCB7F907E01120DBF0203F0CE
:0105E30022F5
:090EB900C2A5C2A4D2A5D2A42254
:100D51007E07C2A5EFA806088002C313D8FC139230
:0C0D6100A4D2A51EC3EE6480948050E66E
:010D6D002263
:100CF000E4FF7E07C2A5D2A530A40D7401A80608A2
:100D00008002C333D8FC42071EC3EE648094805037
:010D1000E3FF
:010D110022BF
:030E7F00120D5100
:0A0E8200C2A5D2A4D2A520A4FD222F
:070EDC00C2A5D2A4D2A52299
:0B0EA400C2A5C2A4D2A5C2A5D2A42200
:100CA6008F3D8D3E8B3F120EC2AF3D120E7FAF3E83
:100CB600120E7FAF3F120D51120E82120EB97F0A2D
:050CC6007E00020DBFDD
:040B81008F458D46C9
:100B8500120EC2AF45120D51120E82AF46120D5113
:100B9500120E82120EC2E5454401FF120D51120ECE
:100BA50082120CF08F47120EDC120EB97F0A7E00FE
:050BB500120DBFAF4767
:010BBA002218
:090EC200C2A5D2A4D2A5C2A4224B
:100E2100454E5445522050415353000000000000EC
:10088200783D7C007D007BFF7A0E792C7E007F050F
:100892001200D6E4F543120DD87F01120DFE7F80BF
:1008A200120DFE7BFF7A0E7921120CCB7F647E0043
:1008B200120DBF7FC0120DFEE4F542120ECB120ED6
:1008C2001040FB12072A8F43743D2542F8A643E5E8
:1008D2004224C0FF120DFEAF43120DEC7F647E0076
:1008E200120DBFE54224C0FF120DFE7F2A120DEC4D
:1008F2000542E542C3940340C2743D2542F8E4F642
:0D0902007F2C7E01120DBF7B007A00793D35
:01090F0022C5
:0F0E610000000000000000000000000000000082
:100B060078407C007D007BFF7A0E79617E007F0550
:100B16001200D67D037FA0120B818F407D047FA03B
:100B2600120B818F417D057FA0120B818F427B00C6
:0D0B36007A007940120CCB7B007A007940E8
:010B4300228F
:100BBB0078407C007D007BFF7A0E79667E007F0596
:100BCB001200D67D087FA0120B818F407D097FA07C
:100BDB00120B818F417D0A7FA0120B818F427B000C
:040BEB007A007940D3
:010BEF0022E3
:100BF00078407C007D007BFF7A0E796B7E007F055C
:100C00001200D67D0D7FA0120B818F407D0E7FA03C
:100C1000120B818F417D0F7FA0120B818F427B00D1
:040C20007A0079409D
:010C240022AD
:100D6E007B307D037FA0120CA67B307D047FA0120A
:0B0D7E000CA67B317D057FA0020CA6B7
:100D89007B307D087FA0120CA67B317D097FA012E4
:0B0D99000CA67B307D0A7FA0020CA698
:100DA4007B317D0D7FA0120CA67B307D0E7FA012BF
:0B0DB4000CA67B307D0F7FA0020CA678
:0A0EAF0075A881D2A8D2AFD2882224
:03000300020B44A9
:100B4400C0E0C0F0C083C082C0D075D000C000C077
:100B540001C002C003C004C005C006C007B2A3128E
:100B640003C6D007D006D005D004D003D002D001EC
:0D0B7400D000D0D0D082D083D0F0D0E032BD
:100E31003738392F3435362A3132332D40303D2B76
:090ECB00C293C292C291C29022AE
:100E100030940C309509309606309703D38001C387
:010E200022AF
:10072A007F0A7E00120DBFC290D293D292D291302C
:10073A009409309506309603209705E4F5448049DC
:10074A00C291D293D292D2903094093095063096C3
:10075A00032097057544018030C292D293D291D278
:10076A009030940930950630960320970575440217
:10077A008017C293D292D291D290309409309506C2
:10078A00309603209703754403209405E4F54580C9
:10079A0013209505754501800B2096057545028045
:1007AA00037545033094FD3095FA3096F73097F487
:1007BA00AF44EF3395E0FEEF7802C333CE33CED8A1
:1007CA00F92431F582740E3EF583AF45EF3395E097
:0E07DA00FEE5822FF582E5833EF583E493FF72
:0107E80022EE
:100DEC008F80D2A0C2A1D2A27F027E00120DBFC200
:020DFC00A22231
:100DFE008F80C2A0C2A1D2A27F027E00120DBFC2FE
:020E0E00A2221E
:100DD8007F02120DFE7F38120DFE7F0E120DFE7F70
:040DE80001020DFEF9
:100CCB008B458A468947AB45AA46A9471200FC606B
:100CDB00130547E5477002054614F91200FCFF1295
:050CEB000DEC80E22287
:100E4100D2B5C2B67FD07E07120DBFC2B5C2B622DF
:100E5100C2B5D2B67FE87E03120DBFC2B5C2B622BB
:1009D3007B317D037FA0120CA67D037FA0120B81C8
:1009E3008F587B327D047FA0120CA67D047FA0125A
:1009F3000B818F597B337D057FA0120CA67D057F6C
:100A0300A0120B818F5A7B347D067FA0120CA67D2A
:100A1300067FA0120B818F5B7B357D077FA0120CB5
:0A0A2300A67D077FA0120B818F5CF7
:010A2D0022A6
:100A7B00120DD87F80120DFE7D117FA0120B818F7E
:100A8B0048120DEC7D127FA0120B818F49120DECD9
:100A9B007D137FA0120B818F4A120DEC7D147FA06A
:100AAB00120B818F4B120DEC7D157FA0120B818FDA
:0A0ABB004C120DEC7B007A00794824
:010AC500220E
:100C5500EF24CE600C14600E24027018120B06806F
:100C650008120BBB8003120BF08B3D8A3E893F7F38
:0A0C750001120DFEAB3DAA3EA93F9F
:010C7F002252
:0607E9008B528A53895473
:1007EF00E4FFFEAB52AA53A9548F828E83120115D8
:1007FF006025AB55AA56A9578F828E83120115FD1E
:10080F00AB52AA53A9548F828E83120115B50507D7
:10081F000FBF00010E80CCAB55AA56A9578F828E01
:10082F0083120115FDAB52AA53A9548F828E8312E6
:10083F000115FCD3ED6480F8EC64809840057E00D0
:10084F007F0122AB55AA56A9578F828E83120115AD
:10085F00FDAB52AA53A9548F828E83120115FFC389
:10086F00ED6480F8EF64809850057EFF7FFF22E4EF
:02087F00FEFF7A
:010881002254
:0F0E7000555220535954454D20424C4F434B008F
:100D1200EF64034E701A7F01120DFE7F80120DFEEA
:100D22007BFF7A0E7970120CCB7FD07E07120DBF3B
:010D3200229E
:100D330053454C4543542049440046524F4D2031BE
:0E0D43002032203300454E54455220494400D2
:10091000E4F53D7F01120DFE7F80120DFE7BFF7A14
:100920000D7933120CCB7FC0120DFE7BFF7A0D794F
:100930003D120CCB7F847E03120DBF7F01120DFE92
:100940007F80120DFE7BFF7A0D7948120CCB7F64FD
:100950007E00120DBF120ECB120E1040FB12072AA2
:100960008F3D7FC0120DFEAF3D120DEC7FE87E0380
:05097000120DBFAF3DB8
:01097500225F
:0C0E8C00759850438920758DFDD28E2290
:080ED4008F993099FDC29922AB
:100C800057454C434F4D4500454C454354524F4EFC
:100C9000494320444F4F520020204C4F434B205398
:060CA000595354454D00BC
:100AC600120DD87F01120DFE7F84120DFE7BFF7A78
:100AD6000C7980120CCB7FE87E03120DBF7F0112CA
:100AE6000DFE7BFF7A0C7988120CCB7FC0120DFEAF
:100AF6007BFF7A0C7998120CCB7FE87E03020DBF40
:03000000020E9855
:0C0E9800787FE4F6D8FD75815C0205E46B
:10000600E709F608DFFA8046E709F208DFFA803EDC
:1000160088828C83E709F0A3DFFA8032E309F608C9
:10002600DFFA8078E309F208DFFA807088828C8331
:10003600E309F0A3DFFA806489828A83E0A3F608E5
:10004600DFFA805889828A83E0A3F208DFFA804CBF
:1000560080D280FA80C680D4806980F28033801096
:1000660080A680EA809A80A880DA80E280CA8033FF
:1000760089828A83ECFAE493A3C8C582C8CCC58377
:10008600CCF0A3C8C582C8CCC583CCDFE9DEE78047
:100096000D89828A83E493A3F608DFF9ECFAA9F0C6
:1000A600EDFB2289828A83ECFAE0A3C8C582C8CC1C
:1000B600C583CCF0A3C8C582C8CCC583CCDFEADE35
:1000C600E880DB89828A83E493A3F208DFF980CC97
:1000D60088F0EF60010E4E60C388F0ED2402B40490
:1000E6000050B9F582EB2402B4040050AF23234537
:0600F60082239000567306
:1000FC00BB010689828A83E0225002E722BBFE0202
:09010C00E32289828A83E4932234
:10011500BB010CE58229F582E5833AF583E022509F
:1001250006E92582F8E622BBFE06E92582F8E222E9
:0D013500E58229F582E5833AF583E4932203
:10014200E3F5F009E208B5F06D606B80F3E3F5F0DA
:1001520009E608B5F060605E80F387F009E608B54D
:10016200F054605280F487F009E208B5F048604626
:1001720080F488828C8387F009E0A3B5F03860367A
:1001820080F488828C8387F009E493A3B5F027601A
:100192002580F388828C83E3F5F009E0A3B5F0169D
:1001A200601480F388828C83E3F5F009E493A3B5AD
:1001B200F004600280F202026D808580E7808E800A
:1001C200D2803C8015806C807E809B80B5808B8045
:1001D200A1804F8070803A02027989828A83ECFA88
:1001E200E493F5F0A3C8C582C8CCC583CCE493A33D
:1001F200C8C582C8CCC583CCB5F070606E80E18979
:10020200828A83E493F5F0A3E208B5F05E605C8035
:10021200F289828A83E0F5F0A3E608B5F04D604BDF
:1002220080F389828A83E0F5F0A3E208B5F03C60AE
:100232003A80F389828A83E493F5F0A3E608B5F065
:100242002A602880F2805389828A83ECFAE493F54B
:10025200F0A3C8C582C8CCC583CCE0A3C8C582C8F8
:10026200CCC583CCB5F004600280E27FFFB5F0021A
:100272000F2240027F012289828A83ECFAE0F5F0A4
:10028200A3C8C582C8CCC583CCE0A3C8C582C8CCEC
:10029200C583CCB5F0D560D380E389828A83ECFA3A
:1002A200E0F5F0A3C8C582C8CCC583CCE493A3C84B
:1002B200C582C8CCC583CCB5F0B160AF80E288F00E
:1002C200ED2402B4040050A3F582EB2402B404002E
:0B02D200509923234582239001BB7349
:1002DD00E709F60870FA8046E709F20870FA803EE1
:1002ED0088828C83E709F0A370FA807EE309F60813
:1002FD0070FA8076E309F20870FA806E88828C833A
:10030D00E309F0A370FA806289828A83E0A3F6087C
:10031D0070FA805689828A83E0A3F20870FA804AC7
:10032D0080D280FA80C680D4806580F280318010C2
:10033D0080A680EA809A80A880DA80E280CA803127
:10034D0089828A83ECFAE493A3C8C582C8CCC5839D
:10035D00CCF0A3C8C582C8CCC583CC70E9800D890B
:10036D00828A83E493A3F60870F9ECFAA9F0EDFB09
:10037D002289828A83ECFAE0A3C8C582C8CCC583E2
:10038D00CCF0A3C8C582C8CCC583CC70EA80DD890A
:10039D00828A83E493A3F20870F980CE88F0ED246D
:1003AD0002B4040050C4F582EB2402B4040050BA28
:0903BD00232345822390032D73D4
:00000001FF
