:090DFB00C2A5C2A4D2A5D2A42213
:100C5C007E07EE3395E0C3648094804014C2A5A84F
:100C6C0006EF088002C313D8FC1392A4D2A51E80F1
:010C7C00E196
:010C7D002254
:100BC500E4FF7E07EE3395E0C3648094804017C24E
:100BD500A5D2A530A40DA8067401088002C333D898
:060BE500FC42071E80DE49
:010BEB0022E7
:030DCD00120C5CA9
:0A0DD000C2A5D2A4D2A520A4FD22E2
:070E1600C2A5D2A4D2A5225F
:0B0DE600C2A5C2A4D2A5C2A5D2A422BF
:100C12008F408D418B42120E04AF40120DCDAF4179
:100C2200120DCDAF42120C5C120DD0120DFB7F0AD9
:050C32007E00020D0E22
:040AF6008F488D494F
:100AFA00120E04AF48120C5C120DD0AF49120C5CF6
:100B0A00120DD0120E04E5484401FF120C5C120DBE
:100B1A00D0120BC58F4A120E16120DFB7F0A7E00E9
:050B2A00120D0EAF4AA0
:010B2F0022A3
:090E0400C2A5D2A4D2A5C2A42209
:1009910050415353204D41544348004F50454E2040
:1009A100444F4F520053455420594F555220504106
:1009B1005353574F5244005052455353203D204BFF
:1009C10045590057524F4E472050415353005452FE
:1009D1005920414741494E2000303030000000008D
:0D09E1000000000000000000000000000009
:1005F40078227C007D007BFF7A0979DA7E007F0512
:100604001200D6E4F527F528F529F52AF52BF52C63
:10061400F52D782E7C00FD7BFF7A0979DFFE7F05BE
:100624001200D678337C007D007BFF7A0979E47E62
:10063400007F051200D678387C007D007BFF7A09A4
:1006440079E97E007F051200D6C2B7120CBD120CE8
:10065400D8120CF3120A3B120DF112092B120B9A49
:10066400782E7C007D001203A91208978B3D8A3EE8
:10067400893FA801AC02AD037B007A00792E1202F7
:10068400C08F2BEF70287F01120D4D7BFF7A097903
:1006940091120C377FC0120D4D7BFF7A09799C12A1
:1006A4000C37120D7F7FD07E07120D0E80ACA83F51
:1006B400AC3EAD3D7B007A0079221202C08F2BEF55
:1006C40070397F01120D4D7F80120D4D7BFF7A0929
:1006D40079A6120C377FC0120D4D7BFF7A0979B8C9
:1006E400120C377F907E01120D0E120D5F40FB122B
:1006F400073F8F2DC2A7D2A702065E7F01120D4DC0
:100704007F80120D4D7BFF7A0979C4120C377FC0AC
:10071400120D4D7BFF7A0979CF120C370529E52993
:10072400700205282430FF120D3BD2B7120D8FC280
:0B073400B7AF29AE28120C7E02065E53
:0607FE008B4B8A4C894D73
:10080400E4FFFEAB4BAA4CA94D8F828E83120115D7
:100814006025AB4EAA4FA9508F828E83120115FD1D
:10082400AB4BAA4CA94D8F828E83120115B50507D7
:100834000FBF00010E80CCAB4EAA4FA9508F828E01
:1008440083120115FDAB4BAA4CA94D8F828E8312E6
:100854000115FCD3ED6480F8EC64809840057E00BB
:100864007F0122AB4EAA4FA9508F828E83120115AD
:10087400FDAB4BAA4CA94D8F828E83120115FFC389
:10088400ED6480F8EF64809850057EFF7FFF22E4DA
:02089400FEFF65
:01089600223F
:100D3B008F80D2A0C2A1D2A27F027E00120D0EC262
:020D4B00A222E2
:100D4D008F80C2A0C2A1D2A27F027E00120D0EC260
:020D5D00A222D0
:100D27007F02120D4D7F38120D4D7F0E120D4D7F34
:040D370001020D4D5B
:100C37008B488A49894AAB48AA49A94A1200FC60ED
:100C470013054AE54A7002054914F91200FCFF1220
:050C57000D3B80E222CC
:100D0E00D3EF9400EE9400400F7DFADDFE7DF7DD0B
:080D1E00FEEF1F70EB1E80E8E0
:010D260022AA
:100D6F003738392F3435362A3132332D40303D2B39
:090E0D00C293C292C291C290226C
:100D5F0030940B309508309605309702D322C3227A
:10073F007F0A7E00120D0EC290D293D292D29130C8
:10074F009409309506309603209705E4F5478049C4
:10075F00C291D293D292D2903094093095063096AE
:10076F00032097057547018030C292D293D291D260
:10077F0090309409309506309603209705754702FF
:10078F008017C293D292D291D290309409309506AD
:10079F00309603209703754703209405E4F54880AE
:1007AF0013209505754801800B209605754802802A
:1007BF00037548033094FD3095FA3096F73097F46F
:1007CF00AF47EF3395E0FEEF7802C333CE33CED889
:1007DF00F9246FF582740D3EF583AF48EF3395E042
:0E07EF00FEE5822FF582E5833EF583E493FF5D
:0107FD0022D9
:03000300020AB935
:100AB900C0E0C0F0C083C082C0D075D000C000C003
:100AC90001C002C003C004C005C006C007B2A3121A
:100AD90003C6D007D006D005D004D003D002D00178
:0D0AE900D000D0D0D082D083D0F0D0E03249
:1009EE00454E544552204F4C4420504153530050D5
:1009FE00415353204D4154434800534554205552C2
:100A0E00204E455720504153530050415353204ED2
:100A1E004F54204D415443480054525920414741B0
:0D0A2E00494E000000000000000000000024
:1003C600E4F50A780D7C00FD7BFF7A0A7931FE7F21
:1003D600051200D678157C007D007BFF7A0A7936F7
:1003E6007E007F051200D6120D277F01120D4D7F6C
:1003F60080120D4D7BFF7A0979EE120C37E4F50B6E
:10040600AF0BEF3395E0FEC3EF9403EE6480948068
:100416005039120E0D120D5F40FB12073F8F097403
:100426000D250BF8A609E50B24C0FF120D4DAF09EB
:10043600120D3B7F647E00120D0EE50B24C0FF12E9
:100446000D4D7F2A120D3B050B80B5740D250BF85B
:10045600E4F612092B8F0AE50AB43105120A7B80ED
:1004660012E50AB43205120B308008E50AB43309E6
:10047600120B658B128A138914780D7C007D00ABF4
:1004860012AA13A9141202C08F0C7F01120D4D7F00
:1004960080120D4DAF0CEF3395E04F60030205C897
:1004A6007F01120D4D7F80120D4D7BFF7A0979FD7C
:1004B600120C377F907E01120D0E7F01120D4D7FBB
:1004C60080120D4D7BFF7A0A7908120C377FC01215
:1004D6000D4D120E0D7F907E01120D0EE50A24CEF3
:1004E6006053147003020580240260030205F312B0
:1004F6000D5F40FB12073F8F08120D3BAB087D03D3
:100506007FA0120C12120E0D120D5F40FB12073F58
:100516008F08120D3BAB087D047FA0120C12120E41
:100526000D120D5F40FB12073F8F08120D3BAB0803
:100536007D050205C3120D5F40FB12073F8F0812AF
:100546000D3BAB087D087FA0120C12120E0D120D8A
:100556005F40FB12073F8F08120D3BAB087D097FFA
:10056600A0120C12120E0D120D5F40FB12073F8FE8
:1005760008120D3BAB087D0A8043120D5F40FB124B
:10058600073F8F08120D3BAB087D0D7FA0120C12A2
:10059600120E0D120D5F40FB12073F8F08120D3B26
:1005A600AB087D0E7FA0120C12120E0D120D5F40CD
:1005B600FB12073F8F08120D3BAB087D0F7FA00291
:1005C6000C127F01120D4D7F80120D4D7BFF7A0AB2
:1005D6007918120C377FC0120D4D7BFF7A0A7927E6
:0D05E600120C377F907E01120D0E0203F003
:0105F30022E5
:0F0DAF0000000000000000000000000000000035
:100A7B0078437C007D007BFF7A0D79AF7E007F058C
:100A8B001200D67D037FA0120AF68F437D047FA050
:100A9B00120AF68F447D057FA0120AF68F457B0064
:0D0AAB007A007943120C377B007A00794302
:010AB800221B
:100B300078437C007D007BFF7A0D79B47E007F05D1
:100B40001200D67D087FA0120AF68F437D097FA090
:100B5000120AF68F447D0A7FA0120AF68F457B00A9
:040B60007A0079435B
:010B6400226E
:100B650078437C007D007BFF7A0D79B97E007F0597
:100B75001200D67D0D7FA0120AF68F437D0E7FA051
:100B8500120AF68F447D0F7FA0120AF68F457B006F
:040B95007A00794326
:010B99002239
:100CBD007B317D037FA0120C127B327D047FA0124D
:0B0CCD000C127B337D057FA0020C128F
:100CD8007B347D087FA0120C127B357D097FA01222
:0B0CE8000C127B367D0A7FA0020C126C
:100CF3007B377D0D7FA0120C127B387D0E7FA012F7
:0B0D03000C127B397D0F7FA0020C1248
:100C9F0053454C4543542049440046524F4D203153
:0E0CAF002032203300454E5445522049440067
:10092B00E4F5407F01120D4D7F80120D4D7BFF7A58
:10093B000C799F120C377FC0120D4D7BFF7A0C790F
:10094B00A9120C377F847E03120D0E7F01120D4D01
:10095B007F80120D4D7BFF7A0C79B4120C377F64BC
:10096B007E00120D0E120E0D120D5F40FB12073F93
:10097B008F407FC0120D4DAF40120D3B7FE87E03C1
:05098B00120D0EAF404B
:010990002244
:100B9A00EF24CE600C14600E24027018120A7B80B7
:100BAA0008120B308003120B658B408A4189427F01
:0A0BBA0001120D4DAB40AA41A94203
:010BC400220E
:100BEC0057454C434F4D4500454C454354524F4E91
:100BFC00494320444F4F520020204C4F434B20532D
:060C0C00595354454D0050
:100A3B00120D277F01120D4D7F84120D4D7BFF7A16
:100A4B000B79EC120C377FE87E03120D0E7F01122F
:100A5B000D4D7BFF7A0B79F4120C377FC0120D4DC5
:100A6B007BFF7A0C7904120C377FE87E03020D0EA4
:0A0DF10075A881D2A8D2AFD28822E3
:100D7F00D2B5C2B67FD07E07120D0EC2B5C2B62253
:100D8F00C2B5D2B67FE87E03120D0EC2B5C2B6222F
:100D9F00454E54455220504153530000000000006F
:1008970078407C007D007BFF7A0D79AA7E007F057A
:1008A7001200D6E4F546120D277F01120D4D7F8009
:1008B700120D4D7BFF7A0D799F120C377F647E00F6
:1008C700120D0E7FC0120D4DE4F545C3E5459403A7
:1008D700748094805039120E0D120D5F40FB120781
:1008E7003F8F4674402545F8A646E54524C0FF12CC
:1008F7000D4DAF46120D3B7F647E00120D0EE54590
:1009070024C0FF120D4D7F2A120D3B054580BC7494
:10091700402545F8E4F67F2C7E01120D0E7B007A08
:0309270000794014
:01092A0022AA
:0F0DBE00555220535954454D20424C4F434B0042
:100C7E00EF64034E701A7F01120D4D7F80120D4DE1
:100C8E007BFF7A0D79BE120C377FD07E07120D0EC8
:010C9E002233
:03000000020DDA14
:0C0DDA00787FE4F6D8FD7581500205F426
:10000600E709F608DFFA8046E709F208DFFA803EDC
:1000160088828C83E709F0A3DFFA8032E309F608C9
:10002600DFFA8078E309F208DFFA807088828C8331
:10003600E309F0A3DFFA806489828A83E0A3F608E5
:10004600DFFA805889828A83E0A3F208DFFA804CBF
:1000560080D280FA80C680D4806980F28033801096
:1000660080A680EA809A80A880DA80E280CA8033FF
:1000760089828A83ECFAE493A3C8C582C8CCC58377
:10008600CCF0A3C8C582C8CCC583CCDFE9DEE78047
:100096000D89828A83E493A3F608DFF9ECFAA9F0C6
:1000A600EDFB2289828A83ECFAE0A3C8C582C8CC1C
:1000B600C583CCF0A3C8C582C8CCC583CCDFEADE35
:1000C600E880DB89828A83E493A3F208DFF980CC97
:1000D60088F0EF60010E4E60C388F0ED2402B40490
:1000E6000050B9F582EB2402B4040050AF23234537
:0600F60082239000567306
:1000FC00BB010689828A83E0225002E722BBFE0202
:09010C00E32289828A83E4932234
:10011500BB010CE58229F582E5833AF583E022509F
:1001250006E92582F8E622BBFE06E92582F8E222E9
:0D013500E58229F582E5833AF583E4932203
:10014200E3F5F009E208B5F06D606B80F3E3F5F0DA
:1001520009E608B5F060605E80F387F009E608B54D
:10016200F054605280F487F009E208B5F048604626
:1001720080F488828C8387F009E0A3B5F03860367A
:1001820080F488828C8387F009E493A3B5F027601A
:100192002580F388828C83E3F5F009E0A3B5F0169D
:1001A200601480F388828C83E3F5F009E493A3B5AD
:1001B200F004600280F202026D808580E7808E800A
:1001C200D2803C8015806C807E809B80B5808B8045
:1001D200A1804F8070803A02027989828A83ECFA88
:1001E200E493F5F0A3C8C582C8CCC583CCE493A33D
:1001F200C8C582C8CCC583CCB5F070606E80E18979
:10020200828A83E493F5F0A3E208B5F05E605C8035
:10021200F289828A83E0F5F0A3E608B5F04D604BDF
:1002220080F389828A83E0F5F0A3E208B5F03C60AE
:100232003A80F389828A83E493F5F0A3E608B5F065
:100242002A602880F2805389828A83ECFAE493F54B
:10025200F0A3C8C582C8CCC583CCE0A3C8C582C8F8
:10026200CCC583CCB5F004600280E27FFFB5F0021A
:100272000F2240027F012289828A83ECFAE0F5F0A4
:10028200A3C8C582C8CCC583CCE0A3C8C582C8CCEC
:10029200C583CCB5F0D560D380E389828A83ECFA3A
:1002A200E0F5F0A3C8C582C8CCC583CCE493A3C84B
:1002B200C582C8CCC583CCB5F0B160AF80E288F00E
:1002C200ED2402B4040050A3F582EB2402B404002E
:0B02D200509923234582239001BB7349
:1002DD00E709F60870FA8046E709F20870FA803EE1
:1002ED0088828C83E709F0A370FA807EE309F60813
:1002FD0070FA8076E309F20870FA806E88828C833A
:10030D00E309F0A370FA806289828A83E0A3F6087C
:10031D0070FA805689828A83E0A3F20870FA804AC7
:10032D0080D280FA80C680D4806580F280318010C2
:10033D0080A680EA809A80A880DA80E280CA803127
:10034D0089828A83ECFAE493A3C8C582C8CCC5839D
:10035D00CCF0A3C8C582C8CCC583CC70E9800D890B
:10036D00828A83E493A3F60870F9ECFAA9F0EDFB09
:10037D002289828A83ECFAE0A3C8C582C8CCC583E2
:10038D00CCF0A3C8C582C8CCC583CC70EA80DD890A
:10039D00828A83E493A3F20870F980CE88F0ED246D
:1003AD0002B4040050C4F582EB2402B4040050BA28
:0903BD00232345822390032D73D4
:00000001FF
